{
  "contractName": "LeeTrioNFT",
  "abi": [
    {
      "inputs": [],
      "stateMutability": "nonpayable",
      "type": "constructor"
    },
    {
      "anonymous": false,
      "inputs": [
        {
          "indexed": true,
          "internalType": "address",
          "name": "owner",
          "type": "address"
        },
        {
          "indexed": true,
          "internalType": "address",
          "name": "approved",
          "type": "address"
        },
        {
          "indexed": true,
          "internalType": "uint256",
          "name": "tokenId",
          "type": "uint256"
        }
      ],
      "name": "Approval",
      "type": "event"
    },
    {
      "anonymous": false,
      "inputs": [
        {
          "indexed": true,
          "internalType": "address",
          "name": "owner",
          "type": "address"
        },
        {
          "indexed": true,
          "internalType": "address",
          "name": "operator",
          "type": "address"
        },
        {
          "indexed": false,
          "internalType": "bool",
          "name": "approved",
          "type": "bool"
        }
      ],
      "name": "ApprovalForAll",
      "type": "event"
    },
    {
      "anonymous": false,
      "inputs": [
        {
          "indexed": true,
          "internalType": "uint256",
          "name": "tokenId",
          "type": "uint256"
        },
        {
          "indexed": false,
          "internalType": "address",
          "name": "owner",
          "type": "address"
        },
        {
          "indexed": false,
          "internalType": "uint256",
          "name": "price",
          "type": "uint256"
        },
        {
          "indexed": false,
          "internalType": "bool",
          "name": "getDefault",
          "type": "bool"
        },
        {
          "indexed": false,
          "internalType": "bool",
          "name": "sell",
          "type": "bool"
        }
      ],
      "name": "NFTItemCreated",
      "type": "event"
    },
    {
      "anonymous": false,
      "inputs": [
        {
          "indexed": true,
          "internalType": "address",
          "name": "previousOwner",
          "type": "address"
        },
        {
          "indexed": true,
          "internalType": "address",
          "name": "newOwner",
          "type": "address"
        }
      ],
      "name": "OwnershipTransferred",
      "type": "event"
    },
    {
      "anonymous": false,
      "inputs": [
        {
          "indexed": true,
          "internalType": "address",
          "name": "from",
          "type": "address"
        },
        {
          "indexed": true,
          "internalType": "address",
          "name": "to",
          "type": "address"
        },
        {
          "indexed": true,
          "internalType": "uint256",
          "name": "tokenId",
          "type": "uint256"
        }
      ],
      "name": "Transfer",
      "type": "event"
    },
    {
      "inputs": [
        {
          "internalType": "address",
          "name": "to",
          "type": "address"
        },
        {
          "internalType": "uint256",
          "name": "tokenId",
          "type": "uint256"
        }
      ],
      "name": "approve",
      "outputs": [],
      "stateMutability": "nonpayable",
      "type": "function"
    },
    {
      "inputs": [
        {
          "internalType": "address",
          "name": "owner",
          "type": "address"
        }
      ],
      "name": "balanceOf",
      "outputs": [
        {
          "internalType": "uint256",
          "name": "",
          "type": "uint256"
        }
      ],
      "stateMutability": "view",
      "type": "function",
      "constant": true
    },
    {
      "inputs": [
        {
          "internalType": "uint256",
          "name": "tokenId",
          "type": "uint256"
        }
      ],
      "name": "getApproved",
      "outputs": [
        {
          "internalType": "address",
          "name": "",
          "type": "address"
        }
      ],
      "stateMutability": "view",
      "type": "function",
      "constant": true
    },
    {
      "inputs": [
        {
          "internalType": "address",
          "name": "owner",
          "type": "address"
        },
        {
          "internalType": "address",
          "name": "operator",
          "type": "address"
        }
      ],
      "name": "isApprovedForAll",
      "outputs": [
        {
          "internalType": "bool",
          "name": "",
          "type": "bool"
        }
      ],
      "stateMutability": "view",
      "type": "function",
      "constant": true
    },
    {
      "inputs": [],
      "name": "name",
      "outputs": [
        {
          "internalType": "string",
          "name": "",
          "type": "string"
        }
      ],
      "stateMutability": "view",
      "type": "function",
      "constant": true
    },
    {
      "inputs": [],
      "name": "owner",
      "outputs": [
        {
          "internalType": "address",
          "name": "",
          "type": "address"
        }
      ],
      "stateMutability": "view",
      "type": "function",
      "constant": true
    },
    {
      "inputs": [
        {
          "internalType": "uint256",
          "name": "tokenId",
          "type": "uint256"
        }
      ],
      "name": "ownerOf",
      "outputs": [
        {
          "internalType": "address",
          "name": "",
          "type": "address"
        }
      ],
      "stateMutability": "view",
      "type": "function",
      "constant": true
    },
    {
      "inputs": [],
      "name": "renounceOwnership",
      "outputs": [],
      "stateMutability": "nonpayable",
      "type": "function"
    },
    {
      "inputs": [
        {
          "internalType": "address",
          "name": "from",
          "type": "address"
        },
        {
          "internalType": "address",
          "name": "to",
          "type": "address"
        },
        {
          "internalType": "uint256",
          "name": "tokenId",
          "type": "uint256"
        }
      ],
      "name": "safeTransferFrom",
      "outputs": [],
      "stateMutability": "nonpayable",
      "type": "function"
    },
    {
      "inputs": [
        {
          "internalType": "address",
          "name": "from",
          "type": "address"
        },
        {
          "internalType": "address",
          "name": "to",
          "type": "address"
        },
        {
          "internalType": "uint256",
          "name": "tokenId",
          "type": "uint256"
        },
        {
          "internalType": "bytes",
          "name": "data",
          "type": "bytes"
        }
      ],
      "name": "safeTransferFrom",
      "outputs": [],
      "stateMutability": "nonpayable",
      "type": "function"
    },
    {
      "inputs": [
        {
          "internalType": "address",
          "name": "operator",
          "type": "address"
        },
        {
          "internalType": "bool",
          "name": "approved",
          "type": "bool"
        }
      ],
      "name": "setApprovalForAll",
      "outputs": [],
      "stateMutability": "nonpayable",
      "type": "function"
    },
    {
      "inputs": [
        {
          "internalType": "bytes4",
          "name": "interfaceId",
          "type": "bytes4"
        }
      ],
      "name": "supportsInterface",
      "outputs": [
        {
          "internalType": "bool",
          "name": "",
          "type": "bool"
        }
      ],
      "stateMutability": "view",
      "type": "function",
      "constant": true
    },
    {
      "inputs": [],
      "name": "symbol",
      "outputs": [
        {
          "internalType": "string",
          "name": "",
          "type": "string"
        }
      ],
      "stateMutability": "view",
      "type": "function",
      "constant": true
    },
    {
      "inputs": [
        {
          "internalType": "uint256",
          "name": "tokenId",
          "type": "uint256"
        }
      ],
      "name": "tokenURI",
      "outputs": [
        {
          "internalType": "string",
          "name": "",
          "type": "string"
        }
      ],
      "stateMutability": "view",
      "type": "function",
      "constant": true
    },
    {
      "inputs": [
        {
          "internalType": "address",
          "name": "from",
          "type": "address"
        },
        {
          "internalType": "address",
          "name": "to",
          "type": "address"
        },
        {
          "internalType": "uint256",
          "name": "tokenId",
          "type": "uint256"
        }
      ],
      "name": "transferFrom",
      "outputs": [],
      "stateMutability": "nonpayable",
      "type": "function"
    },
    {
      "inputs": [
        {
          "internalType": "address",
          "name": "newOwner",
          "type": "address"
        }
      ],
      "name": "transferOwnership",
      "outputs": [],
      "stateMutability": "nonpayable",
      "type": "function"
    },
    {
      "inputs": [
        {
          "internalType": "uint256",
          "name": "_tokenId",
          "type": "uint256"
        }
      ],
      "name": "getOwnerByTokenId",
      "outputs": [
        {
          "internalType": "address",
          "name": "",
          "type": "address"
        }
      ],
      "stateMutability": "view",
      "type": "function",
      "constant": true
    },
    {
      "inputs": [
        {
          "internalType": "string",
          "name": "tokenURI",
          "type": "string"
        },
        {
          "internalType": "uint256",
          "name": "price",
          "type": "uint256"
        }
      ],
      "name": "mintNFT",
      "outputs": [],
      "stateMutability": "nonpayable",
      "type": "function"
    },
    {
      "inputs": [
        {
          "internalType": "uint256",
          "name": "tokenId",
          "type": "uint256"
        },
        {
          "internalType": "address",
          "name": "_buyer",
          "type": "address"
        }
      ],
      "name": "getNFTItem",
      "outputs": [],
      "stateMutability": "nonpayable",
      "type": "function"
    },
    {
      "inputs": [
        {
          "internalType": "uint256",
          "name": "tokenId",
          "type": "uint256"
        },
        {
          "internalType": "uint256",
          "name": "price",
          "type": "uint256"
        }
      ],
      "name": "sellMyNFTItem",
      "outputs": [],
      "stateMutability": "nonpayable",
      "type": "function"
    },
    {
      "inputs": [],
      "name": "myNFTList",
      "outputs": [
        {
          "components": [
            {
              "internalType": "uint256",
              "name": "tokenId",
              "type": "uint256"
            },
            {
              "internalType": "address",
              "name": "owner",
              "type": "address"
            },
            {
              "internalType": "uint256",
              "name": "price",
              "type": "uint256"
            },
            {
              "internalType": "bool",
              "name": "getDefault",
              "type": "bool"
            },
            {
              "internalType": "bool",
              "name": "sell",
              "type": "bool"
            }
          ],
          "internalType": "struct LeeTrioNFT.NFTItem[]",
          "name": "",
          "type": "tuple[]"
        }
      ],
      "stateMutability": "view",
      "type": "function",
      "constant": true
    },
    {
      "inputs": [
        {
          "internalType": "uint256",
          "name": "_tokenId",
          "type": "uint256"
        }
      ],
      "name": "changeSellState",
      "outputs": [
        {
          "internalType": "bool",
          "name": "",
          "type": "bool"
        }
      ],
      "stateMutability": "nonpayable",
      "type": "function"
    },
    {
      "inputs": [],
      "name": "ownerSellLists",
      "outputs": [
        {
          "components": [
            {
              "internalType": "uint256",
              "name": "tokenId",
              "type": "uint256"
            },
            {
              "internalType": "address",
              "name": "owner",
              "type": "address"
            },
            {
              "internalType": "uint256",
              "name": "price",
              "type": "uint256"
            },
            {
              "internalType": "bool",
              "name": "getDefault",
              "type": "bool"
            },
            {
              "internalType": "bool",
              "name": "sell",
              "type": "bool"
            }
          ],
          "internalType": "struct LeeTrioNFT.NFTItem[]",
          "name": "",
          "type": "tuple[]"
        }
      ],
      "stateMutability": "view",
      "type": "function",
      "constant": true
    },
    {
      "inputs": [],
      "name": "sellLists",
      "outputs": [
        {
          "components": [
            {
              "internalType": "uint256",
              "name": "tokenId",
              "type": "uint256"
            },
            {
              "internalType": "address",
              "name": "owner",
              "type": "address"
            },
            {
              "internalType": "uint256",
              "name": "price",
              "type": "uint256"
            },
            {
              "internalType": "bool",
              "name": "getDefault",
              "type": "bool"
            },
            {
              "internalType": "bool",
              "name": "sell",
              "type": "bool"
            }
          ],
          "internalType": "struct LeeTrioNFT.NFTItem[]",
          "name": "",
          "type": "tuple[]"
        }
      ],
      "stateMutability": "view",
      "type": "function",
      "constant": true
    },
    {
      "inputs": [],
      "name": "totalNFTs",
      "outputs": [
        {
          "internalType": "uint256",
          "name": "",
          "type": "uint256"
        }
      ],
      "stateMutability": "view",
      "type": "function",
      "constant": true
    }
  ],
  "bytecode": "0x60806040523480156200001157600080fd5b506040518060400160405280600a81526020017f4c65655472696f4e4654000000000000000000000000000000000000000000008152506040518060400160405280600481526020017f4c544e540000000000000000000000000000000000000000000000000000000081525081600090816200008f919062000412565b508060019081620000a1919062000412565b505050620000c4620000b8620000ca60201b60201c565b620000d260201b60201c565b620004f9565b600033905090565b6000600760009054906101000a900473ffffffffffffffffffffffffffffffffffffffff16905081600760006101000a81548173ffffffffffffffffffffffffffffffffffffffff021916908373ffffffffffffffffffffffffffffffffffffffff1602179055508173ffffffffffffffffffffffffffffffffffffffff168173ffffffffffffffffffffffffffffffffffffffff167f8be0079c531659141344cd1fd0a4f28419497f9722a3daafe3b4186f6b6457e060405160405180910390a35050565b600081519050919050565b7f4e487b7100000000000000000000000000000000000000000000000000000000600052604160045260246000fd5b7f4e487b7100000000000000000000000000000000000000000000000000000000600052602260045260246000fd5b600060028204905060018216806200021a57607f821691505b60208210810362000230576200022f620001d2565b5b50919050565b60008190508160005260206000209050919050565b60006020601f8301049050919050565b600082821b905092915050565b6000600883026200029a7fffffffffffffffffffffffffffffffffffffffffffffffffffffffffffffffff826200025b565b620002a686836200025b565b95508019841693508086168417925050509392505050565b6000819050919050565b6000819050919050565b6000620002f3620002ed620002e784620002be565b620002c8565b620002be565b9050919050565b6000819050919050565b6200030f83620002d2565b620003276200031e82620002fa565b84845462000268565b825550505050565b600090565b6200033e6200032f565b6200034b81848462000304565b505050565b5b8181101562000373576200036760008262000334565b60018101905062000351565b5050565b601f821115620003c2576200038c8162000236565b62000397846200024b565b81016020851015620003a7578190505b620003bf620003b6856200024b565b83018262000350565b50505b505050565b600082821c905092915050565b6000620003e760001984600802620003c7565b1980831691505092915050565b6000620004028383620003d4565b9150826002028217905092915050565b6200041d8262000198565b67ffffffffffffffff811115620004395762000438620001a3565b5b62000445825462000201565b6200045282828562000377565b600060209050601f8311600181146200048a576000841562000475578287015190505b620004818582620003f4565b865550620004f1565b601f1984166200049a8662000236565b60005b82811015620004c4578489015182556001820191506020850194506020810190506200049d565b86831015620004e45784890151620004e0601f891682620003d4565b8355505b6001600288020188555050505b505050505050565b61405a80620005096000396000f3fe608060405234801561001057600080fd5b50600436106101735760003560e01c80636352211e116100de57806398e7f04c11610097578063b88d4fde11610071578063b88d4fde14610438578063c87b56dd14610454578063e985e9c514610484578063f2fde38b146104b457610173565b806398e7f04c146103ce578063a22cb465146103fe578063a5ea38f61461041a57610173565b80636352211e146102f85780636cdac85f1461032857806370a0823114610358578063715018a6146103885780638da5cb5b1461039257806395d89b41146103b057610173565b806326ea4c891161013057806326ea4c891461024c5780632cf2de011461026a5780633efe0a9a1461028657806342842e0e146102a45780635afa3a72146102c05780635ec50f9a146102dc57610173565b806301ffc9a71461017857806306fdde03146101a8578063081812fc146101c6578063095ea7b3146101f65780630d0e96da1461021257806323b872dd14610230575b600080fd5b610192600480360381019061018d9190612ab0565b6104d0565b60405161019f9190612af8565b60405180910390f35b6101b06105b2565b6040516101bd9190612ba3565b60405180910390f35b6101e060048036038101906101db9190612bfb565b610644565b6040516101ed9190612c69565b60405180910390f35b610210600480360381019061020b9190612cb0565b61068a565b005b61021a6107a1565b6040516102279190612cff565b60405180910390f35b61024a60048036038101906102459190612d1a565b6107b2565b005b610254610812565b6040516102619190612eb1565b60405180910390f35b610284600480360381019061027f9190612ed3565b610ac3565b005b61028e610c33565b60405161029b9190612eb1565b60405180910390f35b6102be60048036038101906102b99190612d1a565b610e70565b005b6102da60048036038101906102d59190613048565b610e90565b005b6102f660048036038101906102f191906130a4565b610ff2565b005b610312600480360381019061030d9190612bfb565b611194565b60405161031f9190612c69565b60405180910390f35b610342600480360381019061033d9190612bfb565b611245565b60405161034f9190612af8565b60405180910390f35b610372600480360381019061036d91906130e4565b611320565b60405161037f9190612cff565b60405180910390f35b6103906113d7565b005b61039a6113eb565b6040516103a79190612c69565b60405180910390f35b6103b8611415565b6040516103c59190612ba3565b60405180910390f35b6103e860048036038101906103e39190612bfb565b6114a7565b6040516103f59190612c69565b60405180910390f35b6104186004803603810190610413919061313d565b6114e7565b005b6104226114fd565b60405161042f9190612eb1565b60405180910390f35b610452600480360381019061044d919061321e565b6117bc565b005b61046e60048036038101906104699190612bfb565b61181e565b60405161047b9190612ba3565b60405180910390f35b61049e600480360381019061049991906132a1565b611930565b6040516104ab9190612af8565b60405180910390f35b6104ce60048036038101906104c991906130e4565b6119c4565b005b60007f80ac58cd000000000000000000000000000000000000000000000000000000007bffffffffffffffffffffffffffffffffffffffffffffffffffffffff1916827bffffffffffffffffffffffffffffffffffffffffffffffffffffffff1916148061059b57507f5b5e139f000000000000000000000000000000000000000000000000000000007bffffffffffffffffffffffffffffffffffffffffffffffffffffffff1916827bffffffffffffffffffffffffffffffffffffffffffffffffffffffff1916145b806105ab57506105aa82611a47565b5b9050919050565b6060600080546105c190613310565b80601f01602080910402602001604051908101604052809291908181526020018280546105ed90613310565b801561063a5780601f1061060f5761010080835404028352916020019161063a565b820191906000526020600020905b81548152906001019060200180831161061d57829003601f168201915b5050505050905090565b600061064f82611ab1565b6004600083815260200190815260200160002060009054906101000a900473ffffffffffffffffffffffffffffffffffffffff169050919050565b600061069582611194565b90508073ffffffffffffffffffffffffffffffffffffffff168373ffffffffffffffffffffffffffffffffffffffff1603610705576040517f08c379a00000000000000000000000000000000000000000000000000000000081526004016106fc906133b3565b60405180910390fd5b8073ffffffffffffffffffffffffffffffffffffffff16610724611afc565b73ffffffffffffffffffffffffffffffffffffffff16148061075357506107528161074d611afc565b611930565b5b610792576040517f08c379a000000000000000000000000000000000000000000000000000000000815260040161078990613445565b60405180910390fd5b61079c8383611b04565b505050565b60006107ad6008611bbd565b905090565b6107c36107bd611afc565b82611bcb565b610802576040517f08c379a00000000000000000000000000000000000000000000000000000000081526004016107f9906134d7565b60405180910390fd5b61080d838383611c60565b505050565b606060006108206008611bbd565b905060008060005b838110156108c8573373ffffffffffffffffffffffffffffffffffffffff16600960006001846108589190613526565b815260200190815260200160002060010160009054906101000a900473ffffffffffffffffffffffffffffffffffffffff1673ffffffffffffffffffffffffffffffffffffffff16036108b5576001836108b29190613526565b92505b80806108c09061355a565b915050610828565b5060008267ffffffffffffffff8111156108e5576108e4612f1d565b5b60405190808252806020026020018201604052801561091e57816020015b61090b6129fb565b8152602001906001900390816109035790505b50905060005b84811015610ab8573373ffffffffffffffffffffffffffffffffffffffff16600960006001846109549190613526565b815260200190815260200160002060010160009054906101000a900473ffffffffffffffffffffffffffffffffffffffff1673ffffffffffffffffffffffffffffffffffffffff1603610aa55760006001826109b09190613526565b90506000600960008381526020019081526020016000209050806040518060a0016040529081600082015481526020016001820160009054906101000a900473ffffffffffffffffffffffffffffffffffffffff1673ffffffffffffffffffffffffffffffffffffffff1673ffffffffffffffffffffffffffffffffffffffff168152602001600282015481526020016003820160009054906101000a900460ff161515151581526020016003820160019054906101000a900460ff161515151581525050848681518110610a8857610a876135a2565b5b6020026020010181905250600185610aa09190613526565b945050505b8080610ab09061355a565b915050610924565b508094505050505090565b60011515610ad8610ad26113eb565b33611930565b15151480610b185750610ae96113eb565b73ffffffffffffffffffffffffffffffffffffffff163373ffffffffffffffffffffffffffffffffffffffff16145b610b2157600080fd5b3373ffffffffffffffffffffffffffffffffffffffff16610b4183610644565b73ffffffffffffffffffffffffffffffffffffffff1614610b6157600080fd5b600115156009600084815260200190815260200160002060030160009054906101000a900460ff16151503610b9557600080fd5b600015156009600084815260200190815260200160002060030160019054906101000a900460ff16151503610c135780600960008481526020019081526020016000206002018190555060016009600084815260200190815260200160002060030160016101000a81548160ff021916908315150217905550610c2f565b8060096000848152602001908152602001600020600201819055505b5050565b60606000610c416008611bbd565b905060008060005b83811015610caf576001151560096000600184610c669190613526565b815260200190815260200160002060030160019054906101000a900460ff16151503610c9c57600183610c999190613526565b92505b8080610ca79061355a565b915050610c49565b5060008267ffffffffffffffff811115610ccc57610ccb612f1d565b5b604051908082528060200260200182016040528015610d0557816020015b610cf26129fb565b815260200190600190039081610cea5790505b50905060005b84811015610e65576001151560096000600184610d289190613526565b815260200190815260200160002060030160019054906101000a900460ff16151503610e52576000600182610d5d9190613526565b90506000600960008381526020019081526020016000209050806040518060a0016040529081600082015481526020016001820160009054906101000a900473ffffffffffffffffffffffffffffffffffffffff1673ffffffffffffffffffffffffffffffffffffffff1673ffffffffffffffffffffffffffffffffffffffff168152602001600282015481526020016003820160009054906101000a900460ff161515151581526020016003820160019054906101000a900460ff161515151581525050848681518110610e3557610e346135a2565b5b6020026020010181905250600185610e4d9190613526565b945050505b8080610e5d9061355a565b915050610d0b565b508094505050505090565b610e8b838383604051806020016040528060008152506117bc565b505050565b610e9a6008611ec6565b6000610ea66008611bbd565b90503373ffffffffffffffffffffffffffffffffffffffff16610ec76113eb565b73ffffffffffffffffffffffffffffffffffffffff161480610f59575060011515610ef9610ef36113eb565b33611930565b1515148015610f58575060011515600a60003373ffffffffffffffffffffffffffffffffffffffff1673ffffffffffffffffffffffffffffffffffffffff16815260200190815260200160002060009054906101000a900460ff161515145b5b15610f7257610f6d81848460006001611edc565b610fed565b610f85610f7d6113eb565b336001612031565b6001600a60003373ffffffffffffffffffffffffffffffffffffffff1673ffffffffffffffffffffffffffffffffffffffff16815260200190815260200160002060006101000a81548160ff021916908315150217905550610fec81848460016000611edc565b5b505050565b600115156110076110016113eb565b83611930565b15151461101357600080fd5b8073ffffffffffffffffffffffffffffffffffffffff1661103383610644565b73ffffffffffffffffffffffffffffffffffffffff160361105357600080fd5b600115156009600084815260200190815260200160002060030160009054906101000a900460ff1615150361108757600080fd5b60006009600084815260200190815260200160002060010160009054906101000a900473ffffffffffffffffffffffffffffffffffffffff169050600115156009600085815260200190815260200160002060030160019054906101000a900460ff161515146110f657600080fd5b611101818385611c60565b61110b8284611b04565b816009600085815260200190815260200160002060010160006101000a81548173ffffffffffffffffffffffffffffffffffffffff021916908373ffffffffffffffffffffffffffffffffffffffff16021790555060006009600085815260200190815260200160002060030160016101000a81548160ff021916908315150217905550505050565b6000806002600084815260200190815260200160002060009054906101000a900473ffffffffffffffffffffffffffffffffffffffff169050600073ffffffffffffffffffffffffffffffffffffffff168173ffffffffffffffffffffffffffffffffffffffff160361123c576040517f08c379a00000000000000000000000000000000000000000000000000000000081526004016112339061361d565b60405180910390fd5b80915050919050565b60003373ffffffffffffffffffffffffffffffffffffffff166009600084815260200190815260200160002060010160009054906101000a900473ffffffffffffffffffffffffffffffffffffffff1673ffffffffffffffffffffffffffffffffffffffff161480156112df5750600115156009600084815260200190815260200160002060030160019054906101000a900460ff161515145b6112e857600080fd5b60006009600084815260200190815260200160002060030160016101000a81548160ff02191690831515021790555060019050919050565b60008073ffffffffffffffffffffffffffffffffffffffff168273ffffffffffffffffffffffffffffffffffffffff1603611390576040517f08c379a0000000000000000000000000000000000000000000000000000000008152600401611387906136af565b60405180910390fd5b600360008373ffffffffffffffffffffffffffffffffffffffff1673ffffffffffffffffffffffffffffffffffffffff168152602001908152602001600020549050919050565b6113df61219d565b6113e9600061221b565b565b6000600760009054906101000a900473ffffffffffffffffffffffffffffffffffffffff16905090565b60606001805461142490613310565b80601f016020809104026020016040519081016040528092919081815260200182805461145090613310565b801561149d5780601f106114725761010080835404028352916020019161149d565b820191906000526020600020905b81548152906001019060200180831161148057829003601f168201915b5050505050905090565b60006009600083815260200190815260200160002060010160009054906101000a900473ffffffffffffffffffffffffffffffffffffffff169050919050565b6114f96114f2611afc565b8383612031565b5050565b6060600061150b6008611bbd565b905060008060005b838110156115ba576115236113eb565b73ffffffffffffffffffffffffffffffffffffffff166009600060018461154a9190613526565b815260200190815260200160002060010160009054906101000a900473ffffffffffffffffffffffffffffffffffffffff1673ffffffffffffffffffffffffffffffffffffffff16036115a7576001836115a49190613526565b92505b80806115b29061355a565b915050611513565b5060008267ffffffffffffffff8111156115d7576115d6612f1d565b5b60405190808252806020026020018201604052801561161057816020015b6115fd6129fb565b8152602001906001900390816115f55790505b50905060005b848110156117b1576116266113eb565b73ffffffffffffffffffffffffffffffffffffffff166009600060018461164d9190613526565b815260200190815260200160002060010160009054906101000a900473ffffffffffffffffffffffffffffffffffffffff1673ffffffffffffffffffffffffffffffffffffffff160361179e5760006001826116a99190613526565b90506000600960008381526020019081526020016000209050806040518060a0016040529081600082015481526020016001820160009054906101000a900473ffffffffffffffffffffffffffffffffffffffff1673ffffffffffffffffffffffffffffffffffffffff1673ffffffffffffffffffffffffffffffffffffffff168152602001600282015481526020016003820160009054906101000a900460ff161515151581526020016003820160019054906101000a900460ff161515151581525050848681518110611781576117806135a2565b5b60200260200101819052506001856117999190613526565b945050505b80806117a99061355a565b915050611616565b508094505050505090565b6117cd6117c7611afc565b83611bcb565b61180c576040517f08c379a0000000000000000000000000000000000000000000000000000000008152600401611803906134d7565b60405180910390fd5b611818848484846122e1565b50505050565b606061182982611ab1565b600060066000848152602001908152602001600020805461184990613310565b80601f016020809104026020016040519081016040528092919081815260200182805461187590613310565b80156118c25780601f10611897576101008083540402835291602001916118c2565b820191906000526020600020905b8154815290600101906020018083116118a557829003601f168201915b5050505050905060006118d361233d565b905060008151036118e857819250505061192b565b60008251111561191d57808260405160200161190592919061370b565b6040516020818303038152906040529250505061192b565b61192684612354565b925050505b919050565b6000600560008473ffffffffffffffffffffffffffffffffffffffff1673ffffffffffffffffffffffffffffffffffffffff16815260200190815260200160002060008373ffffffffffffffffffffffffffffffffffffffff1673ffffffffffffffffffffffffffffffffffffffff16815260200190815260200160002060009054906101000a900460ff16905092915050565b6119cc61219d565b600073ffffffffffffffffffffffffffffffffffffffff168173ffffffffffffffffffffffffffffffffffffffff1603611a3b576040517f08c379a0000000000000000000000000000000000000000000000000000000008152600401611a32906137a1565b60405180910390fd5b611a448161221b565b50565b60007f01ffc9a7000000000000000000000000000000000000000000000000000000007bffffffffffffffffffffffffffffffffffffffffffffffffffffffff1916827bffffffffffffffffffffffffffffffffffffffffffffffffffffffff1916149050919050565b611aba816123bc565b611af9576040517f08c379a0000000000000000000000000000000000000000000000000000000008152600401611af09061361d565b60405180910390fd5b50565b600033905090565b816004600083815260200190815260200160002060006101000a81548173ffffffffffffffffffffffffffffffffffffffff021916908373ffffffffffffffffffffffffffffffffffffffff160217905550808273ffffffffffffffffffffffffffffffffffffffff16611b7783611194565b73ffffffffffffffffffffffffffffffffffffffff167f8c5be1e5ebec7d5bd14f71427d1e84f3dd0314c0f7b2291e5b200ac8c7c3b92560405160405180910390a45050565b600081600001549050919050565b600080611bd783611194565b90508073ffffffffffffffffffffffffffffffffffffffff168473ffffffffffffffffffffffffffffffffffffffff161480611c195750611c188185611930565b5b80611c5757508373ffffffffffffffffffffffffffffffffffffffff16611c3f84610644565b73ffffffffffffffffffffffffffffffffffffffff16145b91505092915050565b8273ffffffffffffffffffffffffffffffffffffffff16611c8082611194565b73ffffffffffffffffffffffffffffffffffffffff1614611cd6576040517f08c379a0000000000000000000000000000000000000000000000000000000008152600401611ccd90613833565b60405180910390fd5b600073ffffffffffffffffffffffffffffffffffffffff168273ffffffffffffffffffffffffffffffffffffffff1603611d45576040517f08c379a0000000000000000000000000000000000000000000000000000000008152600401611d3c906138c5565b60405180910390fd5b611d50838383612428565b611d5b600082611b04565b6001600360008573ffffffffffffffffffffffffffffffffffffffff1673ffffffffffffffffffffffffffffffffffffffff1681526020019081526020016000206000828254611dab91906138e5565b925050819055506001600360008473ffffffffffffffffffffffffffffffffffffffff1673ffffffffffffffffffffffffffffffffffffffff1681526020019081526020016000206000828254611e029190613526565b92505081905550816002600083815260200190815260200160002060006101000a81548173ffffffffffffffffffffffffffffffffffffffff021916908373ffffffffffffffffffffffffffffffffffffffff160217905550808273ffffffffffffffffffffffffffffffffffffffff168473ffffffffffffffffffffffffffffffffffffffff167fddf252ad1be2c89b69c2b068fc378daa952ba7f163c4a11628f55a4df523b3ef60405160405180910390a4611ec183838361242d565b505050565b6001816000016000828254019250508190555050565b611ee63386612432565b611ef08585612450565b6040518060a001604052808681526020013373ffffffffffffffffffffffffffffffffffffffff1681526020018481526020018315158152602001821515815250600960008781526020019081526020016000206000820151816000015560208201518160010160006101000a81548173ffffffffffffffffffffffffffffffffffffffff021916908373ffffffffffffffffffffffffffffffffffffffff1602179055506040820151816002015560608201518160030160006101000a81548160ff02191690831515021790555060808201518160030160016101000a81548160ff021916908315150217905550905050611fec3386611b04565b847f0dfa8ea614338f6ad21d0fdde43948287b45a201098105e9e6c04d34df94e27f338585856040516120229493929190613919565b60405180910390a25050505050565b8173ffffffffffffffffffffffffffffffffffffffff168373ffffffffffffffffffffffffffffffffffffffff160361209f576040517f08c379a0000000000000000000000000000000000000000000000000000000008152600401612096906139aa565b60405180910390fd5b80600560008573ffffffffffffffffffffffffffffffffffffffff1673ffffffffffffffffffffffffffffffffffffffff16815260200190815260200160002060008473ffffffffffffffffffffffffffffffffffffffff1673ffffffffffffffffffffffffffffffffffffffff16815260200190815260200160002060006101000a81548160ff0219169083151502179055508173ffffffffffffffffffffffffffffffffffffffff168373ffffffffffffffffffffffffffffffffffffffff167f17307eab39ab6107e8899845ad3d59bd9653f200f220920489ca2b5937696c31836040516121909190612af8565b60405180910390a3505050565b6121a5611afc565b73ffffffffffffffffffffffffffffffffffffffff166121c36113eb565b73ffffffffffffffffffffffffffffffffffffffff1614612219576040517f08c379a000000000000000000000000000000000000000000000000000000000815260040161221090613a16565b60405180910390fd5b565b6000600760009054906101000a900473ffffffffffffffffffffffffffffffffffffffff16905081600760006101000a81548173ffffffffffffffffffffffffffffffffffffffff021916908373ffffffffffffffffffffffffffffffffffffffff1602179055508173ffffffffffffffffffffffffffffffffffffffff168173ffffffffffffffffffffffffffffffffffffffff167f8be0079c531659141344cd1fd0a4f28419497f9722a3daafe3b4186f6b6457e060405160405180910390a35050565b6122ec848484611c60565b6122f8848484846124bd565b612337576040517f08c379a000000000000000000000000000000000000000000000000000000000815260040161232e90613aa8565b60405180910390fd5b50505050565b606060405180602001604052806000815250905090565b606061235f82611ab1565b600061236961233d565b9050600081511161238957604051806020016040528060008152506123b4565b8061239384612644565b6040516020016123a492919061370b565b6040516020818303038152906040525b915050919050565b60008073ffffffffffffffffffffffffffffffffffffffff166002600084815260200190815260200160002060009054906101000a900473ffffffffffffffffffffffffffffffffffffffff1673ffffffffffffffffffffffffffffffffffffffff1614159050919050565b505050565b505050565b61244c8282604051806020016040528060008152506127a4565b5050565b612459826123bc565b612498576040517f08c379a000000000000000000000000000000000000000000000000000000000815260040161248f90613b3a565b60405180910390fd5b806006600084815260200190815260200160002090816124b89190613d06565b505050565b60006124de8473ffffffffffffffffffffffffffffffffffffffff166127ff565b15612637578373ffffffffffffffffffffffffffffffffffffffff1663150b7a02612507611afc565b8786866040518563ffffffff1660e01b81526004016125299493929190613e2d565b6020604051808303816000875af192505050801561256557506040513d601f19601f820116820180604052508101906125629190613e8e565b60015b6125e7573d8060008114612595576040519150601f19603f3d011682016040523d82523d6000602084013e61259a565b606091505b5060008151036125df576040517f08c379a00000000000000000000000000000000000000000000000000000000081526004016125d690613aa8565b60405180910390fd5b805181602001fd5b63150b7a0260e01b7bffffffffffffffffffffffffffffffffffffffffffffffffffffffff1916817bffffffffffffffffffffffffffffffffffffffffffffffffffffffff19161491505061263c565b600190505b949350505050565b60606000820361268b576040518060400160405280600181526020017f3000000000000000000000000000000000000000000000000000000000000000815250905061279f565b600082905060005b600082146126bd5780806126a69061355a565b915050600a826126b69190613eea565b9150612693565b60008167ffffffffffffffff8111156126d9576126d8612f1d565b5b6040519080825280601f01601f19166020018201604052801561270b5781602001600182028036833780820191505090505b5090505b600085146127985760018261272491906138e5565b9150600a856127339190613f1b565b603061273f9190613526565b60f81b818381518110612755576127546135a2565b5b60200101907effffffffffffffffffffffffffffffffffffffffffffffffffffffffffffff1916908160001a905350600a856127919190613eea565b945061270f565b8093505050505b919050565b6127ae8383612822565b6127bb60008484846124bd565b6127fa576040517f08c379a00000000000000000000000000000000000000000000000000000000081526004016127f190613aa8565b60405180910390fd5b505050565b6000808273ffffffffffffffffffffffffffffffffffffffff163b119050919050565b600073ffffffffffffffffffffffffffffffffffffffff168273ffffffffffffffffffffffffffffffffffffffff1603612891576040517f08c379a000000000000000000000000000000000000000000000000000000000815260040161288890613f98565b60405180910390fd5b61289a816123bc565b156128da576040517f08c379a00000000000000000000000000000000000000000000000000000000081526004016128d190614004565b60405180910390fd5b6128e660008383612428565b6001600360008473ffffffffffffffffffffffffffffffffffffffff1673ffffffffffffffffffffffffffffffffffffffff16815260200190815260200160002060008282546129369190613526565b92505081905550816002600083815260200190815260200160002060006101000a81548173ffffffffffffffffffffffffffffffffffffffff021916908373ffffffffffffffffffffffffffffffffffffffff160217905550808273ffffffffffffffffffffffffffffffffffffffff16600073ffffffffffffffffffffffffffffffffffffffff167fddf252ad1be2c89b69c2b068fc378daa952ba7f163c4a11628f55a4df523b3ef60405160405180910390a46129f76000838361242d565b5050565b6040518060a0016040528060008152602001600073ffffffffffffffffffffffffffffffffffffffff168152602001600081526020016000151581526020016000151581525090565b6000604051905090565b600080fd5b600080fd5b60007fffffffff0000000000000000000000000000000000000000000000000000000082169050919050565b612a8d81612a58565b8114612a9857600080fd5b50565b600081359050612aaa81612a84565b92915050565b600060208284031215612ac657612ac5612a4e565b5b6000612ad484828501612a9b565b91505092915050565b60008115159050919050565b612af281612add565b82525050565b6000602082019050612b0d6000830184612ae9565b92915050565b600081519050919050565b600082825260208201905092915050565b60005b83811015612b4d578082015181840152602081019050612b32565b60008484015250505050565b6000601f19601f8301169050919050565b6000612b7582612b13565b612b7f8185612b1e565b9350612b8f818560208601612b2f565b612b9881612b59565b840191505092915050565b60006020820190508181036000830152612bbd8184612b6a565b905092915050565b6000819050919050565b612bd881612bc5565b8114612be357600080fd5b50565b600081359050612bf581612bcf565b92915050565b600060208284031215612c1157612c10612a4e565b5b6000612c1f84828501612be6565b91505092915050565b600073ffffffffffffffffffffffffffffffffffffffff82169050919050565b6000612c5382612c28565b9050919050565b612c6381612c48565b82525050565b6000602082019050612c7e6000830184612c5a565b92915050565b612c8d81612c48565b8114612c9857600080fd5b50565b600081359050612caa81612c84565b92915050565b60008060408385031215612cc757612cc6612a4e565b5b6000612cd585828601612c9b565b9250506020612ce685828601612be6565b9150509250929050565b612cf981612bc5565b82525050565b6000602082019050612d146000830184612cf0565b92915050565b600080600060608486031215612d3357612d32612a4e565b5b6000612d4186828701612c9b565b9350506020612d5286828701612c9b565b9250506040612d6386828701612be6565b9150509250925092565b600081519050919050565b600082825260208201905092915050565b6000819050602082019050919050565b612da281612bc5565b82525050565b612db181612c48565b82525050565b612dc081612add565b82525050565b60a082016000820151612ddc6000850182612d99565b506020820151612def6020850182612da8565b506040820151612e026040850182612d99565b506060820151612e156060850182612db7565b506080820151612e286080850182612db7565b50505050565b6000612e3a8383612dc6565b60a08301905092915050565b6000602082019050919050565b6000612e5e82612d6d565b612e688185612d78565b9350612e7383612d89565b8060005b83811015612ea4578151612e8b8882612e2e565b9750612e9683612e46565b925050600181019050612e77565b5085935050505092915050565b60006020820190508181036000830152612ecb8184612e53565b905092915050565b60008060408385031215612eea57612ee9612a4e565b5b6000612ef885828601612be6565b9250506020612f0985828601612be6565b9150509250929050565b600080fd5b600080fd5b7f4e487b7100000000000000000000000000000000000000000000000000000000600052604160045260246000fd5b612f5582612b59565b810181811067ffffffffffffffff82111715612f7457612f73612f1d565b5b80604052505050565b6000612f87612a44565b9050612f938282612f4c565b919050565b600067ffffffffffffffff821115612fb357612fb2612f1d565b5b612fbc82612b59565b9050602081019050919050565b82818337600083830152505050565b6000612feb612fe684612f98565b612f7d565b90508281526020810184848401111561300757613006612f18565b5b613012848285612fc9565b509392505050565b600082601f83011261302f5761302e612f13565b5b813561303f848260208601612fd8565b91505092915050565b6000806040838503121561305f5761305e612a4e565b5b600083013567ffffffffffffffff81111561307d5761307c612a53565b5b6130898582860161301a565b925050602061309a85828601612be6565b9150509250929050565b600080604083850312156130bb576130ba612a4e565b5b60006130c985828601612be6565b92505060206130da85828601612c9b565b9150509250929050565b6000602082840312156130fa576130f9612a4e565b5b600061310884828501612c9b565b91505092915050565b61311a81612add565b811461312557600080fd5b50565b60008135905061313781613111565b92915050565b6000806040838503121561315457613153612a4e565b5b600061316285828601612c9b565b925050602061317385828601613128565b9150509250929050565b600067ffffffffffffffff82111561319857613197612f1d565b5b6131a182612b59565b9050602081019050919050565b60006131c16131bc8461317d565b612f7d565b9050828152602081018484840111156131dd576131dc612f18565b5b6131e8848285612fc9565b509392505050565b600082601f83011261320557613204612f13565b5b81356132158482602086016131ae565b91505092915050565b6000806000806080858703121561323857613237612a4e565b5b600061324687828801612c9b565b945050602061325787828801612c9b565b935050604061326887828801612be6565b925050606085013567ffffffffffffffff81111561328957613288612a53565b5b613295878288016131f0565b91505092959194509250565b600080604083850312156132b8576132b7612a4e565b5b60006132c685828601612c9b565b92505060206132d785828601612c9b565b9150509250929050565b7f4e487b7100000000000000000000000000000000000000000000000000000000600052602260045260246000fd5b6000600282049050600182168061332857607f821691505b60208210810361333b5761333a6132e1565b5b50919050565b7f4552433732313a20617070726f76616c20746f2063757272656e74206f776e6560008201527f7200000000000000000000000000000000000000000000000000000000000000602082015250565b600061339d602183612b1e565b91506133a882613341565b604082019050919050565b600060208201905081810360008301526133cc81613390565b9050919050565b7f4552433732313a20617070726f76652063616c6c6572206973206e6f7420746f60008201527f6b656e206f776e6572206e6f7220617070726f76656420666f7220616c6c0000602082015250565b600061342f603e83612b1e565b915061343a826133d3565b604082019050919050565b6000602082019050818103600083015261345e81613422565b9050919050565b7f4552433732313a2063616c6c6572206973206e6f7420746f6b656e206f776e6560008201527f72206e6f7220617070726f766564000000000000000000000000000000000000602082015250565b60006134c1602e83612b1e565b91506134cc82613465565b604082019050919050565b600060208201905081810360008301526134f0816134b4565b9050919050565b7f4e487b7100000000000000000000000000000000000000000000000000000000600052601160045260246000fd5b600061353182612bc5565b915061353c83612bc5565b9250828201905080821115613554576135536134f7565b5b92915050565b600061356582612bc5565b91507fffffffffffffffffffffffffffffffffffffffffffffffffffffffffffffffff8203613597576135966134f7565b5b600182019050919050565b7f4e487b7100000000000000000000000000000000000000000000000000000000600052603260045260246000fd5b7f4552433732313a20696e76616c696420746f6b656e2049440000000000000000600082015250565b6000613607601883612b1e565b9150613612826135d1565b602082019050919050565b60006020820190508181036000830152613636816135fa565b9050919050565b7f4552433732313a2061646472657373207a65726f206973206e6f74206120766160008201527f6c6964206f776e65720000000000000000000000000000000000000000000000602082015250565b6000613699602983612b1e565b91506136a48261363d565b604082019050919050565b600060208201905081810360008301526136c88161368c565b9050919050565b600081905092915050565b60006136e582612b13565b6136ef81856136cf565b93506136ff818560208601612b2f565b80840191505092915050565b600061371782856136da565b915061372382846136da565b91508190509392505050565b7f4f776e61626c653a206e6577206f776e657220697320746865207a65726f206160008201527f6464726573730000000000000000000000000000000000000000000000000000602082015250565b600061378b602683612b1e565b91506137968261372f565b604082019050919050565b600060208201905081810360008301526137ba8161377e565b9050919050565b7f4552433732313a207472616e736665722066726f6d20696e636f72726563742060008201527f6f776e6572000000000000000000000000000000000000000000000000000000602082015250565b600061381d602583612b1e565b9150613828826137c1565b604082019050919050565b6000602082019050818103600083015261384c81613810565b9050919050565b7f4552433732313a207472616e7366657220746f20746865207a65726f2061646460008201527f7265737300000000000000000000000000000000000000000000000000000000602082015250565b60006138af602483612b1e565b91506138ba82613853565b604082019050919050565b600060208201905081810360008301526138de816138a2565b9050919050565b60006138f082612bc5565b91506138fb83612bc5565b9250828203905081811115613913576139126134f7565b5b92915050565b600060808201905061392e6000830187612c5a565b61393b6020830186612cf0565b6139486040830185612ae9565b6139556060830184612ae9565b95945050505050565b7f4552433732313a20617070726f766520746f2063616c6c657200000000000000600082015250565b6000613994601983612b1e565b915061399f8261395e565b602082019050919050565b600060208201905081810360008301526139c381613987565b9050919050565b7f4f776e61626c653a2063616c6c6572206973206e6f7420746865206f776e6572600082015250565b6000613a00602083612b1e565b9150613a0b826139ca565b602082019050919050565b60006020820190508181036000830152613a2f816139f3565b9050919050565b7f4552433732313a207472616e7366657220746f206e6f6e20455243373231526560008201527f63656976657220696d706c656d656e7465720000000000000000000000000000602082015250565b6000613a92603283612b1e565b9150613a9d82613a36565b604082019050919050565b60006020820190508181036000830152613ac181613a85565b9050919050565b7f45524337323155524953746f726167653a2055524920736574206f66206e6f6e60008201527f6578697374656e7420746f6b656e000000000000000000000000000000000000602082015250565b6000613b24602e83612b1e565b9150613b2f82613ac8565b604082019050919050565b60006020820190508181036000830152613b5381613b17565b9050919050565b60008190508160005260206000209050919050565b60006020601f8301049050919050565b600082821b905092915050565b600060088302613bbc7fffffffffffffffffffffffffffffffffffffffffffffffffffffffffffffffff82613b7f565b613bc68683613b7f565b95508019841693508086168417925050509392505050565b6000819050919050565b6000613c03613bfe613bf984612bc5565b613bde565b612bc5565b9050919050565b6000819050919050565b613c1d83613be8565b613c31613c2982613c0a565b848454613b8c565b825550505050565b600090565b613c46613c39565b613c51818484613c14565b505050565b5b81811015613c7557613c6a600082613c3e565b600181019050613c57565b5050565b601f821115613cba57613c8b81613b5a565b613c9484613b6f565b81016020851015613ca3578190505b613cb7613caf85613b6f565b830182613c56565b50505b505050565b600082821c905092915050565b6000613cdd60001984600802613cbf565b1980831691505092915050565b6000613cf68383613ccc565b9150826002028217905092915050565b613d0f82612b13565b67ffffffffffffffff811115613d2857613d27612f1d565b5b613d328254613310565b613d3d828285613c79565b600060209050601f831160018114613d705760008415613d5e578287015190505b613d688582613cea565b865550613dd0565b601f198416613d7e86613b5a565b60005b82811015613da657848901518255600182019150602085019450602081019050613d81565b86831015613dc35784890151613dbf601f891682613ccc565b8355505b6001600288020188555050505b505050505050565b600081519050919050565b600082825260208201905092915050565b6000613dff82613dd8565b613e098185613de3565b9350613e19818560208601612b2f565b613e2281612b59565b840191505092915050565b6000608082019050613e426000830187612c5a565b613e4f6020830186612c5a565b613e5c6040830185612cf0565b8181036060830152613e6e8184613df4565b905095945050505050565b600081519050613e8881612a84565b92915050565b600060208284031215613ea457613ea3612a4e565b5b6000613eb284828501613e79565b91505092915050565b7f4e487b7100000000000000000000000000000000000000000000000000000000600052601260045260246000fd5b6000613ef582612bc5565b9150613f0083612bc5565b925082613f1057613f0f613ebb565b5b828204905092915050565b6000613f2682612bc5565b9150613f3183612bc5565b925082613f4157613f40613ebb565b5b828206905092915050565b7f4552433732313a206d696e7420746f20746865207a65726f2061646472657373600082015250565b6000613f82602083612b1e565b9150613f8d82613f4c565b602082019050919050565b60006020820190508181036000830152613fb181613f75565b9050919050565b7f4552433732313a20746f6b656e20616c7265616479206d696e74656400000000600082015250565b6000613fee601c83612b1e565b9150613ff982613fb8565b602082019050919050565b6000602082019050818103600083015261401d81613fe1565b905091905056fea26469706673582212203121ebf3098ac43a9fd8c4e38dfdc5b3f00c75fdf259a26134e764810118da8264736f6c63430008110033",
  "immutableReferences": {},
  "source": "// SPDX-License-Identifier: MIT\npragma solidity >=0.8.0 <0.9.0;\n\nimport \"@openzeppelin/contracts/token/ERC721/extensions/ERC721URIStorage.sol\";\nimport \"@openzeppelin/contracts/access/Ownable.sol\";\nimport \"@openzeppelin/contracts/utils/Counters.sol\";\n\ncontract LeeTrioNFT is ERC721URIStorage, Ownable {\n    using Counters for Counters.Counter;\n    Counters.Counter private _tokenIds;\n\n    constructor() ERC721(\"LeeTrioNFT\", \"LTNT\") {}\n\n    mapping(uint256 => NFTItem) private idToNFTItem;\n    mapping(address => bool) private getDefault;\n\n    struct NFTItem {\n        uint256 tokenId;\n        address owner;\n        uint256 price;\n        bool getDefault;\n        bool sell;\n    }\n\n    event NFTItemCreated(\n        uint256 indexed tokenId,\n        address owner,\n        uint256 price,\n        bool getDefault,\n        bool sell\n    );\n\n    function getOwnerByTokenId(uint256 _tokenId) public view returns (address) {\n        return idToNFTItem[_tokenId].owner;\n    }\n\n    function createNFTItem(\n        uint256 _tokenId,\n        string memory _tokenURI,\n        uint256 _price,\n        bool _getDefault,\n        bool _sell\n    ) private {\n        _safeMint(msg.sender, _tokenId);\n        _setTokenURI(_tokenId, _tokenURI);\n        idToNFTItem[_tokenId] = NFTItem(\n            _tokenId,\n            payable(msg.sender),\n            _price,\n            _getDefault,\n            _sell\n        );\n        _approve(msg.sender, _tokenId);\n        emit NFTItemCreated(_tokenId, msg.sender, _price, _getDefault, _sell);\n    }\n\n    function mintNFT(string memory tokenURI, uint256 price) public {\n        _tokenIds.increment();\n        uint256 tokenId = _tokenIds.current();\n        if (\n            owner() == msg.sender ||\n            (isApprovedForAll(owner(), msg.sender) == true &&\n                getDefault[msg.sender] == true)\n        ) {\n            createNFTItem(tokenId, tokenURI, price, false, true);\n        } else {\n            _setApprovalForAll(owner(), msg.sender, true);\n            getDefault[msg.sender] = true;\n            createNFTItem(tokenId, tokenURI, price, true, false);\n        }\n    }\n\n    function getNFTItem(uint256 tokenId, address _buyer) external {\n        require(isApprovedForAll(owner(), _buyer) == true);\n        require(getApproved(tokenId) != _buyer);\n        require(idToNFTItem[tokenId].getDefault != true);\n\n        address owner = idToNFTItem[tokenId].owner;\n        require(idToNFTItem[tokenId].sell == true);\n\n        _transfer(owner, _buyer, tokenId);\n        _approve(_buyer, tokenId);\n        idToNFTItem[tokenId].owner = _buyer;\n        idToNFTItem[tokenId].sell = false;\n    }\n\n    function sellMyNFTItem(uint256 tokenId, uint256 price) public {\n        require(\n            isApprovedForAll(owner(), msg.sender) == true ||\n                msg.sender == owner()\n        );\n        require(getApproved(tokenId) == msg.sender);\n        require(idToNFTItem[tokenId].getDefault != true);\n        if (idToNFTItem[tokenId].sell == false) {\n            idToNFTItem[tokenId].price = price;\n            idToNFTItem[tokenId].sell = true;\n        } else {\n            idToNFTItem[tokenId].price = price;\n        }\n    }\n\n    function myNFTList() public view returns (NFTItem[] memory) {\n        uint256 totalItemCount = _tokenIds.current();\n        uint256 itemCount = 0;\n        uint256 currentIndex = 0;\n\n        for (uint256 i = 0; i < totalItemCount; i++) {\n            if (idToNFTItem[i + 1].owner == msg.sender) {\n                itemCount += 1;\n            }\n        }\n\n        NFTItem[] memory items = new NFTItem[](itemCount);\n        for (uint256 i = 0; i < totalItemCount; i++) {\n            if (idToNFTItem[i + 1].owner == msg.sender) {\n                uint256 currentId = i + 1;\n                NFTItem storage currentItem = idToNFTItem[currentId];\n                items[currentIndex] = currentItem;\n                currentIndex += 1;\n            }\n        }\n        return items;\n    }\n\n    function changeSellState(uint256 _tokenId) public returns (bool) {\n        require(\n            idToNFTItem[_tokenId].owner == msg.sender &&\n                idToNFTItem[_tokenId].sell == true\n        );\n        idToNFTItem[_tokenId].sell = false;\n        return true;\n    }\n\n    function ownerSellLists() public view returns (NFTItem[] memory) {\n        uint256 totalItemCount = _tokenIds.current();\n        uint256 itemCount = 0;\n        uint256 currentIndex = 0;\n\n        for (uint256 i = 0; i < totalItemCount; i++) {\n            if (idToNFTItem[i + 1].owner == owner()) {\n                itemCount += 1;\n            }\n        }\n\n        NFTItem[] memory items = new NFTItem[](itemCount);\n        for (uint256 i = 0; i < totalItemCount; i++) {\n            if (idToNFTItem[i + 1].owner == owner()) {\n                uint256 currentId = i + 1;\n                NFTItem storage currentItem = idToNFTItem[currentId];\n                items[currentIndex] = currentItem;\n                currentIndex += 1;\n            }\n        }\n        return items;\n    }\n\n    function sellLists() public view returns (NFTItem[] memory) {\n        uint256 totalItemCount = _tokenIds.current();\n        uint256 itemCount = 0;\n        uint256 currentIndex = 0;\n\n        for (uint256 i = 0; i < totalItemCount; i++) {\n            if (idToNFTItem[i + 1].sell == true) {\n                itemCount += 1;\n            }\n        }\n\n        NFTItem[] memory items = new NFTItem[](itemCount);\n        for (uint256 i = 0; i < totalItemCount; i++) {\n            if (idToNFTItem[i + 1].sell == true) {\n                uint256 currentId = i + 1;\n                NFTItem storage currentItem = idToNFTItem[currentId];\n                items[currentIndex] = currentItem;\n                currentIndex += 1;\n            }\n        }\n        return items;\n    }\n\n    function totalNFTs() public view returns (uint256) {\n        return _tokenIds.current();\n    }\n}\n",
  "sourcePath": "/Users/security/Desktop/LeeTrioNFT/contracts/LeeTrioNFT.sol",
  "compiler": {
    "name": "solc",
    "version": "0.8.17+commit.8df45f5f.Emscripten.clang"
  },
  "schemaVersion": "3.4.10",
  "updatedAt": "2022-10-27T00:06:36.529Z",
  "networkType": "ethereum",
  "devdoc": {
    "kind": "dev",
    "methods": {
      "approve(address,uint256)": {
        "details": "See {IERC721-approve}."
      },
      "balanceOf(address)": {
        "details": "See {IERC721-balanceOf}."
      },
      "getApproved(uint256)": {
        "details": "See {IERC721-getApproved}."
      },
      "isApprovedForAll(address,address)": {
        "details": "See {IERC721-isApprovedForAll}."
      },
      "name()": {
        "details": "See {IERC721Metadata-name}."
      },
      "owner()": {
        "details": "Returns the address of the current owner."
      },
      "ownerOf(uint256)": {
        "details": "See {IERC721-ownerOf}."
      },
      "renounceOwnership()": {
        "details": "Leaves the contract without owner. It will not be possible to call `onlyOwner` functions anymore. Can only be called by the current owner. NOTE: Renouncing ownership will leave the contract without an owner, thereby removing any functionality that is only available to the owner."
      },
      "safeTransferFrom(address,address,uint256)": {
        "details": "See {IERC721-safeTransferFrom}."
      },
      "safeTransferFrom(address,address,uint256,bytes)": {
        "details": "See {IERC721-safeTransferFrom}."
      },
      "setApprovalForAll(address,bool)": {
        "details": "See {IERC721-setApprovalForAll}."
      },
      "supportsInterface(bytes4)": {
        "details": "See {IERC165-supportsInterface}."
      },
      "symbol()": {
        "details": "See {IERC721Metadata-symbol}."
      },
      "tokenURI(uint256)": {
        "details": "See {IERC721Metadata-tokenURI}."
      },
      "transferFrom(address,address,uint256)": {
        "details": "See {IERC721-transferFrom}."
      },
      "transferOwnership(address)": {
        "details": "Transfers ownership of the contract to a new account (`newOwner`). Can only be called by the current owner."
      }
    },
    "version": 1
  },
  "userdoc": {
    "kind": "user",
    "methods": {},
    "version": 1
  }
}