{
  "contractName": "Utils",
  "abi": [
    {
      "inputs": [
        {
          "internalType": "address",
          "name": "TokenAddress",
          "type": "address"
        },
        {
          "internalType": "address",
          "name": "NFTAddress",
          "type": "address"
        }
      ],
      "stateMutability": "nonpayable",
      "type": "constructor"
    },
    {
      "anonymous": false,
      "inputs": [
        {
          "indexed": false,
          "internalType": "uint256",
          "name": "tokenId",
          "type": "uint256"
        },
        {
          "indexed": false,
          "internalType": "address",
          "name": "from",
          "type": "address"
        },
        {
          "indexed": false,
          "internalType": "address",
          "name": "to",
          "type": "address"
        }
      ],
      "name": "GetNFTResult",
      "type": "event"
    },
    {
      "inputs": [
        {
          "internalType": "uint256",
          "name": "tokenId",
          "type": "uint256"
        },
        {
          "internalType": "uint256",
          "name": "_cost",
          "type": "uint256"
        }
      ],
      "name": "getNFTItem",
      "outputs": [
        {
          "internalType": "bool",
          "name": "",
          "type": "bool"
        }
      ],
      "stateMutability": "nonpayable",
      "type": "function"
    }
  ],
  "bytecode": "0x608060405234801561001057600080fd5b506040516108413803806108418339818101604052810190610032919061011d565b816000806101000a81548173ffffffffffffffffffffffffffffffffffffffff021916908373ffffffffffffffffffffffffffffffffffffffff16021790555080600160006101000a81548173ffffffffffffffffffffffffffffffffffffffff021916908373ffffffffffffffffffffffffffffffffffffffff160217905550505061015d565b600080fd5b600073ffffffffffffffffffffffffffffffffffffffff82169050919050565b60006100ea826100bf565b9050919050565b6100fa816100df565b811461010557600080fd5b50565b600081519050610117816100f1565b92915050565b60008060408385031215610134576101336100ba565b5b600061014285828601610108565b925050602061015385828601610108565b9150509250929050565b6106d58061016c6000396000f3fe608060405234801561001057600080fd5b506004361061002b5760003560e01c8063e344eac614610030575b600080fd5b61004a60048036038101906100459190610418565b610060565b6040516100579190610473565b60405180910390f35b600080600160009054906101000a900473ffffffffffffffffffffffffffffffffffffffff1673ffffffffffffffffffffffffffffffffffffffff166370a08231336040518263ffffffff1660e01b81526004016100be91906104cf565b602060405180830381865afa1580156100db573d6000803e3d6000fd5b505050506040513d601f19601f820116820180604052508101906100ff91906104ff565b0361010957600080fd5b8161011333610339565b111561032e576000600160009054906101000a900473ffffffffffffffffffffffffffffffffffffffff1673ffffffffffffffffffffffffffffffffffffffff166398e7f04c856040518263ffffffff1660e01b8152600401610176919061053b565b602060405180830381865afa158015610193573d6000803e3d6000fd5b505050506040513d601f19601f820116820180604052508101906101b79190610582565b905060008054906101000a900473ffffffffffffffffffffffffffffffffffffffff1673ffffffffffffffffffffffffffffffffffffffff166323b872dd3383866040518463ffffffff1660e01b8152600401610216939291906105af565b6020604051808303816000875af1158015610235573d6000803e3d6000fd5b505050506040513d601f19601f820116820180604052508101906102599190610612565b50600160009054906101000a900473ffffffffffffffffffffffffffffffffffffffff1673ffffffffffffffffffffffffffffffffffffffff16635ec50f9a85336040518363ffffffff1660e01b81526004016102b792919061063f565b600060405180830381600087803b1580156102d157600080fd5b505af11580156102e5573d6000803e3d6000fd5b505050507f95ef3a119e2a676569f23f86f28a1f5d127724468e6ad9bdf8612dcd6a33129b84823360405161031c93929190610668565b60405180910390a16001915050610333565b600090505b92915050565b60008060009054906101000a900473ffffffffffffffffffffffffffffffffffffffff1673ffffffffffffffffffffffffffffffffffffffff166370a08231836040518263ffffffff1660e01b815260040161039591906104cf565b602060405180830381865afa1580156103b2573d6000803e3d6000fd5b505050506040513d601f19601f820116820180604052508101906103d691906104ff565b9050919050565b600080fd5b6000819050919050565b6103f5816103e2565b811461040057600080fd5b50565b600081359050610412816103ec565b92915050565b6000806040838503121561042f5761042e6103dd565b5b600061043d85828601610403565b925050602061044e85828601610403565b9150509250929050565b60008115159050919050565b61046d81610458565b82525050565b60006020820190506104886000830184610464565b92915050565b600073ffffffffffffffffffffffffffffffffffffffff82169050919050565b60006104b98261048e565b9050919050565b6104c9816104ae565b82525050565b60006020820190506104e460008301846104c0565b92915050565b6000815190506104f9816103ec565b92915050565b600060208284031215610515576105146103dd565b5b6000610523848285016104ea565b91505092915050565b610535816103e2565b82525050565b6000602082019050610550600083018461052c565b92915050565b61055f816104ae565b811461056a57600080fd5b50565b60008151905061057c81610556565b92915050565b600060208284031215610598576105976103dd565b5b60006105a68482850161056d565b91505092915050565b60006060820190506105c460008301866104c0565b6105d160208301856104c0565b6105de604083018461052c565b949350505050565b6105ef81610458565b81146105fa57600080fd5b50565b60008151905061060c816105e6565b92915050565b600060208284031215610628576106276103dd565b5b6000610636848285016105fd565b91505092915050565b6000604082019050610654600083018561052c565b61066160208301846104c0565b9392505050565b600060608201905061067d600083018661052c565b61068a60208301856104c0565b61069760408301846104c0565b94935050505056fea264697066735822122014a34878aceda73253329519b380920d3f3aeb143cac48494b6b9c595ff9198664736f6c63430008110033",
  "immutableReferences": {},
  "source": "// SPDX-License-Identifier: MIT\npragma solidity >=0.8.0 <0.9.0;\n\nimport \"./LeeTrioNFT.sol\";\nimport \"./LeeTrioToken.sol\";\n\ncontract Utils {\n    LeeTrioToken private Token;\n    LeeTrioNFT private NFT;\n\n    constructor(address TokenAddress, address NFTAddress) {\n        Token = LeeTrioToken(TokenAddress);\n        NFT = LeeTrioNFT(NFTAddress);\n    }\n\n    modifier checkNFT() {\n        require(NFT.balanceOf(msg.sender) != 0);\n        _;\n    }\n\n    event GetNFTResult(uint256 tokenId, address from, address to);\n\n    function getNFTItem(uint256 tokenId, uint256 _cost)\n        public\n        checkNFT\n        returns (bool)\n    {\n        if (checkbalance(msg.sender) > _cost) {\n            address owner = NFT.getOwnerByTokenId(tokenId);\n            Token.transferFrom(msg.sender, owner, _cost);\n            NFT.getNFTItem(tokenId, msg.sender);\n            emit GetNFTResult(tokenId, owner, msg.sender);\n            return true;\n        }\n        return false;\n    }\n\n    function checkbalance(address _sender) private view returns (uint256) {\n        return Token.balanceOf(_sender);\n    }\n}\n",
  "sourcePath": "/Users/security/Desktop/LeeTrioNFT/contracts/Utils.sol",
  "compiler": {
    "name": "solc",
    "version": "0.8.17+commit.8df45f5f.Emscripten.clang"
  },
  "schemaVersion": "3.4.10",
  "updatedAt": "2022-10-27T00:06:36.523Z",
  "networkType": "ethereum",
  "devdoc": {
    "kind": "dev",
    "methods": {},
    "version": 1
  },
  "userdoc": {
    "kind": "user",
    "methods": {},
    "version": 1
  }
}